:020000040800F2
:10D000001049002069D1000891ED000811EB0008DB
:10D010000000000000000000000000000000000010
:10D0200000000000000000000000000035F00008D3
:10D030000000000000000000A5EE000891F30008C9
:10D040007BD100087BD100087BD100087BD1000890
:10D050007BD100087BD100087BD100087BD1000880
:10D060007BD100087BD100087BD1000875E800085F
:10D0700077E800087BD100087BD100087BD100084D
:10D080007BD100087BD100087BD100087BD1000850
:10D090007BD1000835F400087BD1000809F50008B1
:10D0A0007BD10008ADF40008E1F400087BD1000852
:10D0B00045F500087BD100087BD100087BD1000832
:10D0C0007BD100087BD100087BD100087BD1000810
:10D0D0007BD100087BD10008000000007BD1000854
:10D0E0007BD100087BD100087BD100080DE9000846
:10D0F00000000000000000000000000079E80008C7
:10D10000000000000000000000000000000000001F
:10D110000000000000000000000000007BD10008BB
:10D120007BD100087BD100087BD100087BD10008AF
:10D130007BD100087BD100087BD100087BD100089F
:10D140007BD100087BD100087BD100087BD100088F
:10D150007BD100080348854600F0F0FD00480047F9
:10D16000117D010810490020044880470448004709
:10D17000FEE7FEE7FEE7FEE7FEE7FEE799F30008BD
:10D1800055D1000803460B439B0703D009E008C9AB
:10D19000121F08C0042AFAD203E00B780370401C67
:10D1A000491C521EF9D27047D2B201E00270401CF5
:10D1B000491EFBD270470022F6E710B513460A4617
:10D1C00004461946FFF7F0FF204610BD421C0178C7
:10D1D000401C0029FBD1801A704710B5002200E0E6
:10D1E000521C835C8C5CA34201D1002BF8D1D8B2D5
:10D1F000E1B2401A10BD70B5064613F05FF804683E
:10D2000005460A220021304600F010FC2C6070BD5B
:10D21000F8B502464A40D40F42004B0052085B0862
:10D220009A4202D20246084611464A0023D0C30D54
:10D230004A00DDB2120EAD1A202D35DA4902012660
:10D24000490AF6058A19002C00D0524220214F1BB2
:10D250001146B9402A411018C20D9A4221D0002C23
:10D2600017D0012D08DCDA05801AD20F8019D207F9
:10D27000DBB200F01BFCF8BDDA05801A0123400088
:10D280001B06C01880185A428018CA0F1043490064
:10D2900007E04908C2071143DA05801A80194008DF
:10D2A000801800F0FBFBF8BD61000122511A001B41
:10D2B000F7E70122D2075140AAE70122D2075040E6
:10D2C000A6E7024670B54A40D30FDB0740002DD0D9
:10D2D0004A002AD0010E140E000212020919400A57
:10D2E000520A8418E50104465443000A120A2E0427
:10D2F0005043A4194219200CC543AA18120C012549
:10D30000AD03521C521912047F39240400D0521C60
:10D31000104301D44000491EC2B20C06C0092018B7
:10D32000401C4008802A02D003E0002070BD400865
:10D330004000002900DA0020184370BD70B5024695
:10D340004A40D50F40004A00ED0740085208002827
:10D3500014D0002A12D0C40DD30D41020120C00503
:10D360005202490A520AE41A091812187D349142ED
:10D3700001D3641C00E04900002C01DA002070BDDC
:10D380000023914201D3891A034340084900002831
:10D39000F7D100290AD0914202D10121C90705E045
:10D3A000914201D2012101E00121C943E005C018E9
:10D3B000401900F073FB70BDF0B5074608465840B1
:10D3C00087B0C00F049048000E4659004008490835
:10D3D000BC1A884105D2384631461E4617460B46D0
:10D3E00002465800400810434CD0300D03904005D1
:10D3F0005900400D490D0590401A0290402872DAFC
:10D4000018030121000B09050843019004980092BC
:10D41000002805D0019952420020884100920190D5
:10D42000029840210A1A0199009800F071FA054605
:10D430000C466B4607CB00F08CFAC0197141039A79
:10D440000E0D0023D71756401A467A40164344D093
:10D45000049A002A2DD0029A012A039A15DC12059B
:10D46000C01A914101263605001C7141D20F059E5C
:10D47000D2070093019202962A46234600F05CFBF5
:10D4800007B0F0BD38463146FAE71605224A0F4686
:10D49000B218C01AB74101210905001C4F410018FC
:10D4A0007F41114618187941E20F10436D1964410C
:10D4B00013E0E2076D0815436408C2071443039A9A
:10D4C00001261205C01A91413605001C7141CE0794
:10D4D000400830434908C01851412A46234600F00D
:10D4E0001EFBCDE7FFE7049801224000C117121A86
:10D4F00000238B4104983146C417381AA141EEE746
:10D5000030B40124E407634030BC55E730B4012453
:10D51000E407614030BC4FE70000E0FFF0B51FB406
:10D5200088B00B990998002448400999C00F490018
:10D5300049080991C0070B990090490049080B91CF
:10D5400009990898A64608431CD00B990A980843E5
:10D5500018D0099801244000420D4800410D099857
:10D5600024050003000B204309900B980003000BD7
:10D5700020430B9050181C4940180022019014467B
:10D58000104605E0002001460DB0F0BD032801DA89
:10D59000034600E003239C46C11A0AAE0AE05F007E
:10D5A00008ADED5B4F00F75B7D430027AA187C4177
:10D5B000491C5B1E6145F2DD410004AB5A52210457
:10D5C000120C0A43240C401C0828DFDB019802904F
:10D5D0000099704601910090059B049A079906985E
:10D5E00000F0AAFAD0E700000DFCFFFFF0B50C46F2
:10D5F0005C4085B0E40FE40703944C000026640807
:10D6000059009446490802460296224321D06246B8
:10D610000A431ED06200570D4A000E032303550D26
:10D62000012402462C492405781B1B0B360B40189D
:10D6300023432643614600901C46501AB44103D34D
:10D640000098401C009002E0921800985B4100286E
:10D6500003DA0020014605B0F0BD002001210905D4
:10D660000746864611E064461D46141BB54106D3A5
:10D670006546521BB341744607430C43A646CD078B
:10D6800040084908284392185B4105460D43EAD1FA
:10D690001046184313D06046194650407140084365
:10D6A00006D06046101AB34106D20122002306E0DC
:10D6B00000220123DB0702E00122D243531000982D
:10D6C00074460105381C6141029C039D00196941A3
:10D6D00000F025FABFE70000FD0300000122D20799
:10D6E000002800DB101A002900DB511A814201D802
:10D6F00001207047002070470122D207002800DB7C
:10D70000101A002900DB511A814201D20120704712
:10D71000002070470122D207002800DB101A0029E0
:10D7200000DB511A814201D301207047002070476D
:10D730000122D207002800DB101A002900DB511A51
:10D74000814201D901207047002070470122D20791
:10D75000002800DB101A002900DB511A814201D198
:10D76000012070470020704710B5002904DB0C46EB
:10D770000121C9074042A141002B04DB1C460123C3
:10D78000DB075242A341801A994101D3012010BD09
:10D79000002010BDC217C10F504010B54018CA0775
:10D7A0009623002100F082F910BD10B500229623C7
:10D7B000114600F07BF910BD0EB5C217C10F5040E5
:10D7C000CA0740180021054B0293019200910A46B6
:10D7D0000B4600F0B1F903B000BD000033040000B7
:10D7E000410040020122400AD205090E80187F291B
:10D7F00001DA00207047962903DC9622511AC840AE
:10D80000704796398840704770B5CD0F4A000903BC
:10D810000123090B1B0519430B4BED070024520D87
:10D820009A4201DA002070BD074B34339A4203DC80
:10D830009A1A00F07DF802E00449511888402C4300
:10D84000F1D0404270BD0000FF030000CDFBFFFFA0
:10D85000C20FD207400040080BD0C10D0723DB01E7
:10D86000C91840020905400A1143C2084007114384
:10D870007047002001467047CB0FDB07490010B509
:10D88000490802460A4307D00A0D07240903E401A8
:10D89000090B121B002A01DC002010BDC900440F37
:10D8A0000C43C100E018D205801800F0F7F810BD55
:10D8B000F0B51FB40646002082B005464024019111
:10D8C00000901BE0019922460F46304600F030F8E8
:10D8D000049A059B801A994110D310461946224696
:10D8E00000F016F8361A8F410197224601200021D8
:10D8F000009F00F00DF838184D4100902046641E3E
:10D900000028DFDC019B00982946324607B0F0BDB5
:10D9100010B5202A04DB0146203A9140002010BDBA
:10D92000914020239C1A0346E3401943904010BDC8
:10D9300010B5202A04DB0846203AD040002110BD53
:10D940000B46D340D0402024A21A914008431946E8
:10D9500010BD10B5202A06DBCB170846203A10412F
:10D96000C1170B4306E00B461341D0402024A21AF6
:10D9700091400843194610BD0FB400B589B00A465E
:10D980000DA9009100230C99002ACB60234B06932C
:10D99000234B079301D0042300E00023214A029285
:10D9A000214A0892019302466B46002000F095FA46
:10D9B00009B008BC04B01847F0B585B00746002090
:10D9C000C04301901E46002015460C46009102916E
:10D9D00004903B466A46314604A8FFF7CDFF049900
:10D9E00002466018002D05D0002901D0034600E052
:10D9F00023462B6000290ED0002A02DD00998142C7
:10DA000009D0001B019000943B466A4631460294BF
:10DA100004A8FFF7B1FF05B0F0BD000031E1000838
:10DA200051E10008FFFFFF7FA9DD0008F7B5009C6A
:10DA30000F4600262578641C002D05D000F0B0F9B3
:10DA40000068405DC007F5D12B2D02D02D2D18D0D8
:10DA5000641E39462046029A00F08CFB002F04D049
:10DA60003968A14201D10099396071050224002969
:10DA70000BDA4042002803DD12F020FC0460A0070E
:10DA8000FEBD012080020643E3E70028F8DA12F029
:10DA900015FC04600048FEBDFFFFFF7F002904DA8B
:10DAA000401C490001D140084000704770B4002478
:10DAB000050C05D11024000402D1002921D0112425
:10DAC000050E01D100020834050F01D10001241D0B
:10DAD000850F01D18000A41C002801DB4000641CDC
:10DAE000002908D020252E1B0D46F540A14000D06E
:10DAF00001212943084301061B1B000ADB1D02D537
:10DB0000002070BC7047DB05181880180029F8DA6F
:10DB1000401C4900F5D170BC40084000704710B56A
:10DB2000002B08DA0024401C614192185B411A4323
:10DB300001D14008400010BDF0B51FB482B00546C9
:10DB40000C0003D0084612F08BFB02E012F088FBB9
:10DB500020300246009021462846FFF7D9FE049B5C
:10DB6000059A04460F4618431143084314D018463B
:10DB700010431BD0009840210A1A18460599FFF758
:10DB8000D7FE05460E46009A05990498FFF7C0FE99
:10DB9000084305D0012004E02046394607B0F0BD17
:10DBA0000020C11705430E432C43374300990E98BC
:10DBB0006305401A7905E40A00220C43FD0A0A3085
:10DBC00002D500200146E9E70105101969410C9CC6
:10DBD0000D9D00196941FFF7A2FFDFE770B54B000B
:10DBE0005B0803430BD04B005C0D002633466542B7
:10DBF000B341D417AD1AA34102DB0020014670BD2A
:10DC000012053018514170BDFEB500231A461B1A8B
:10DC10008A4103DB0020014603B0F0BD4A000D033A
:10DC200001212D0B0905520D0D43D10702D100181A
:10DC30006D41521E5110FF31FF3101310027044662
:10DC40003E46384600970191024601210020090511
:10DC5000FFF76EFEC3197141F818324684468E46AE
:10DC60004A4161462846611A904104D36046241A0D
:10DC7000954176461F46241900986D41401C00903E
:10DC80003428E1DDF91930467041091BA84103D25F
:10DC90000022D243134601E00022134601980105F9
:10DCA000381C7141FFF73BFFB6E700004A0009034B
:10DCB0000123090B1B0519430A4B10B5520D9A425B
:10DCC00002DA0020014610BD064B34339A4203DCD1
:10DCD0009A1AFFF72DFE10BD034BD218FFF718FE5E
:10DCE00010BD0000FF030000CDFBFFFF10B50029B1
:10DCF00004DB0124E40740428C412146002B04DB75
:10DD00001C460123DB075242A3418B4200D18242D1
:10DD100010BD000010B5002904DB0124E4074042D7
:10DD20008C412146002B04DB1C460123DB075242B9
:10DD3000A341994200D1904210BD0000064C01253C
:10DD4000064E05E0E36807CC2B430C3C98471034A3
:10DD5000B442F7D3FFF702FA1C2E02083C2E020849
:10DD600070B50446002903D000202022012310E0D2
:10DD7000002801D00020C043C046C0460DE0254623
:10DD8000D5408D4205D30D469540641B1D469540F8
:10DD900040191546521E002DF1DC214670BD0000D1
:10DDA00000487047041D020810B50446FFF7F8FF4D
:10DDB0000068005DC007C00F10BD0000FFB5087807
:10DDC00089B01546FF2805D0491C2D2804D0002213
:10DDD000002407E000240BE00122F9E70A235C435A
:10DDE0000419491C0878FF28F8D1002A00D06442A1
:10DDF000002004902A7801462D2A01D02B2A0FD129
:10DE00006D1C2D2A02D00022049209E00122FBE7BA
:10DE100000260A2233466D1C00F0FFF938187141C4
:10DE20002F78FF2FF4D10C9AA218069202460A43CB
:10DE300004D0FF23069A9133DA4205DA00210998CB
:10DE40000A4606C00DB0F0BD0024B74AB54D2646BF
:10DE5000079200F009FA029006980391002801DA6F
:10DE6000474200E0074639050020AF4A001C5141F7
:10DE70000191009012E0F80707D022462B46304669
:10DE80000799FFF74BFB0646079122462B461046A3
:10DE90001946FFF743FB04460D467F10002FEAD1D9
:10DEA0000698019B0028009A0399029806DAFFF76A
:10DEB0009DFB3246079BFFF799FB05E0FFF72EFB22
:10DEC0003246079BFFF72AFB049A002A02D0012260
:10DED000D2075140099A03C2B4E7FFB591B00020C0
:10DEE00009900025ED432E209E685C681F46019036
:10DEF000B9696D1C129888470090396A88470028D4
:10DF0000F6D10098401C0AD00D20C0018443002E99
:10DF100012DD00982B2809D02D280DD103E0002018
:10DF2000C04315B0F0BD012080020443B9696D1CE7
:10DF300012988847761E009003A9600501D52D2010
:10DF400000E02B206A461073491C0CA80F91029028
:10DF50000AE0B9696D1C12988847009001204002C0
:10DF600004431398761E0560002E02DD00983028C9
:10DF7000EFD001990098884245D18020044308E001
:10DF80000998401E09900120400204431399681C1F
:10DF90000860B9696D1C761E129888470090302879
:10DFA000EED030E00199884205D1200603D48020CC
:10DFB0000443761E1DE0009812F0E0FA002825D0F8
:10DFC000012149020C43009807AA0F990332303807
:10DFD000761E914208D208700F98401C0F902006C0
:10DFE00007D50998401E03E0200602D40998401C7A
:10DFF0000990A00502D51399681C0860B9696D1CC9
:10E00000129888470090002ECCDC59E0002E57DD96
:10E010000098652801D0452852D1A00550D503208D
:10E0200000028443B9696D1C761E129888470090DF
:10E03000002E0CDD2B2804D02D2808D1FF20013024
:10E040000443B9696D1C12988847761E0090E0055C
:10E0500001D52D2100E02B21029801700298401C6F
:10E060000290019025E00120400204430EA902988D
:10E070000131761E88420ED200980299303800068F
:10E08000000E087003D10299019881420AD90298C2
:10E09000401C029006E0E00501D5244801E0234839
:10E0A00040420990B9696D1C1298884700901398F6
:10E0B0000560002E04DD009812F060FA0028D2D12D
:10E0C000F969129888470F99FF200870029903AAEE
:10E0D000087000200A900B900CA90AA8099BFFF772
:10E0E0006DFEA00502D40120C0431AE7242004429B
:10E0F00009D0E00713D138680B9A0A99031D3B60D9
:10E10000006806C00BE00B990A98FFF7B5FB0146C3
:10E11000E00704D13868021D3A60006801602846B3
:10E12000FFE60000000014400000F03FF1D8FFFFC0
:10E130004268002A08D001680B78491C002B03D0E4
:10E14000521E06C0184670470121C160881E7047E4
:10E150004268002A0BD0C3680168002B07D183688E
:10E160008B4204D0491E521C06C00020704700207C
:10E17000C0437047F7B582B0029C00272078641C2A
:10E1800015460197302802D0002D15D015E02078D3
:10E190000127641C782804D0582802D0002D09D00B
:10E1A0000BE0002D01D0102D07D10027102520787D
:10E1B000641C02E0082500E00A250026009610E015
:10E1C0000099012769430818020C294680B271435F
:10E1D00000908E183804864201D3012001902078E7
:10E1E000641C294600F031F80028E9DA0398002879
:10E1F00005D0002F01D0641E00E0029C046001984D
:10E20000002806D012F05AF802210160C81E05B09D
:10E21000F0BD009930040843F9E730B5434351435A
:10E220005C18010C130C0D465D432C1980B292B2A0
:10E230000546554351430A0C09044D1962415843A0
:10E24000010C00044019514130BD3A2800D2303849
:10E25000202302469A43412A01D310463738884288
:10E2600001D30020C04370470EB5054A0292002238
:10E27000009213460192FFF75FFC03B000BD00005F
:10E280003304000070B58C180578401C6B075B0FD9
:10E2900001D10378401C2A1106D10278401C03E00A
:10E2A00006780E70401C491C5B1EF9D12B0705D463
:10E2B0000023521E0DD40B70491CFAE70378401C52
:10E2C000CB1A921C03E01D780D70491C5B1C521E7A
:10E2D000F9D5A142D8D3002070BD000080B584B02C
:10E2E00002A80A2101702848016803229204914380
:10E2F0000160016801600120019000F07FFC32485C
:10E3000040F200110160019800F078FCFFE71E4820
:10E3100040F2002103F06CFF01281ED1FFE702A8A4
:10E3200001784A1E0270002913D1FFE7254840F208
:10E3300000110160144801680322920491430160B6
:10E340000168012292041143016003A800210170B9
:10E3500015E0012000F052FCD9E71A4840F2001104
:10E360000160094801680322920491430160016839
:10E37000012293041943016003A80270FFE703A878
:10E38000007804B080BDC0460004004880B584B069
:10E390000C4840F20011016040F2002202600122AC
:10E3A000039010460291019200F028FC0648029961
:10E3B0000160019800F022FC02980399086004B003
:10E3C00080BDC046280400481804004885B06B484A
:10E3D00003900398007802A908700398407801AA76
:10E3E0001070039880786A461070087841280ED122
:10E3F000FFE701A80078542809D1FFE768460078B4
:10E400002B2804D1FFE704A80121017003E004A830
:10E4100000210170FFE704A8007840B205B0704702
:10E4200080B584B00390039800F000F90290029840
:10E43000002809D0FFE702984068039949680190D5
:10E44000084601998847FFE704B080BD10B586B043
:10E45000059004A800210170484803900290FFE74E
:10E4600004A80078632818D8FFE7029804A909785F
:10E4700040180390039800782C2801D1FFE70CE0A6
:10E48000039800785C2801D1FFE706E0FFE7FFE78B
:10E490000498401C04A90870E2E7059804A90A78CA
:10E4A000364B01911946FEF76DFE0599019A1378D6
:10E4B0000024CC5406B010BDB0B588B0079006A8B3
:10E4C0000021017005A801702C480490039002906F
:10E4D000FFE706A8007863282CD8FFE7029806A972
:10E4E000097840180390049800782C2807D0FFE79B
:10E4F000039804900598401C05A90870FFE703984D
:10E5000000785C2810D1FFE70398407872280BD17F
:10E51000FFE7039880785C2806D1FFE70398C0786E
:10E520006E2801D1FFE705E0FFE70698401C06A929
:10E530000870CEE7049800785C2804D1FFE70798BC
:10E540000021017017E007980499491C06AA137866
:10E5500005AC25785B1B1B1D01921A460094FEF743
:10E5600011FE0799019A1378009C25785B1B5918B6
:10E5700000234B71FFE708B0B0BDC0460302002086
:10E5800080B584B003A80021017002A83322027074
:10E590000C20019112F088FD6A4908600868019A10
:10E5A00002600868426008688260FFE703A800789C
:10E5B00002A90978884221DAFFE703A80078C000A1
:10E5C0000F490858002813D0FFE703A80078C000BF
:10E5D0000B490818406800280AD0FFE703A8007814
:10E5E000C00007490A180858516800F061F8FFE7B1
:10E5F000FFE70398401C03A90870D7E704B080BD6B
:10E600001000002080B584B003900291019202981E
:10E61000FFF71CFF0198FFF74FFF0298039908606E
:10E6200001980399486004B080BD000080B584B0B3
:10E630000290444800680190FFE701988068002834
:10E6400019D0FFE70198006800280FD0FFE7019874
:10E650000068006802990968FEF7BFFD002804D130
:10E66000FFE70198006803901EE0FFE7FFE70198CD
:10E6700080680190E1E701980068002811D0FFE769
:10E6800001980068006802990968FEF7A6FD002855
:10E6900004D1FFE701980068039005E00020039093
:10E6A00002E000200390FFE7039804B080BDC0465D
:10E6B00080B588B007900691082012F0F5FC05900F
:10E6C000102012F0F1FC0599086005980068079980
:10E6D000049008460391FEF779FD049902900846DC
:10E6E0000399029AFEF74EFD0699059A5160059925
:10E6F0000190084600F002F808B080BD80B584B0F3
:10E7000003901048006802900C2012F0CDFC01909C
:10E71000FFE702988068002805D0FFE7FFE702982E
:10E7200080680290F5E70198029988600298019943
:10E73000486001980021816003980199086004B045
:10E7400080BDC046D001002080B59CB0002019904B
:10E7500018901790169002A85021FEF72CFDFFF795
:10E7600035FE002801D1FFE709E01AA816A902AA80
:10E770000190FFF747FF0198FFF752FEFFE71CB03B
:10E7800080BD10B58AB0099008910792099806904B
:10E790000998059004A80021017003A8017002A83F
:10E7A000017009980078002804D1FFE7079800213C
:10E7B00001705DE0FFE703A800784F2853D8FFE71A
:10E7C000059803A9097840180690069800782C2827
:10E7D00009D0FFE70498401C04A908700398401C66
:10E7E00003A908701DE0089802A90A780C23534376
:10E7F000C018059A04AB1C7801911146224600937B
:10E80000FEF7C0FC0599009A1378C918491C0591B8
:10E810000021117003AB19700299491C019B1970FA
:10E82000FFE7069800785C281CD1FFE7069840783F
:10E83000722817D1FFE7069880785C2812D1FFE78D
:10E840000698C0786E280DD1FFE7089802A90978CC
:10E850000C224A438018059904AA1278521EFEF72A
:10E8600091FC00E0A7E70298401C07990870FFE7B9
:10E870000AB010BD7047704780B540F2004003F009
:10E88000CFF800282AD0FFE740F2004003F0C0F89C
:10E890001A4800684005002807D5FFE703F0ACFBE5
:10E8A000184900224A60086017E0144800684005D3
:10E8B000002811D4FFE703F09FFB114900224A60B2
:10E8C0000860486809680F4A53681268891A9841B5
:10E8D0000D4A11605060FFE7FFE70EE041F20000D3
:10E8E00003F09EF8002807D0FFE741F2000003F094
:10E8F0008FF802F052FDFFE7FFE780BD10080048E7
:10E9000080020020B8050020E801002080B582B018
:10E91000244811F00DF8402003F082F8012807D1B7
:10E92000FFE7402003F074F81F4852210170FFE711
:10E9300040F2002003F074F8012808D1FFE740F20C
:10E94000002003F065F818484C210170FFE71748D4
:10E950000088652804DBFFE7144800210180FFE7F9
:10E9600013480168F44A11600E4940F2E832019000
:10E9700008460091114610F0EDFF009810F0E1FFFD
:10E9800001980168032906D3FFE709480068800061
:10E99000E9490860FFE706480021016000F046F9F8
:10E9A00002B080BD004C01407C020020C60800205F
:10E9B00068030020F0B58BB01C460D46064609AF33
:10E9C000387008A80170079206A8037005A80021F6
:10E9D0000170049403950296019700F055F8019890
:10E9E000007801F001F9FFF779FC012804D0FFE776
:10E9F0000AA80021017043E008A8007801F0F4F8AB
:10EA0000FFF76CFC012804D0FFE70AA80021017081
:10EA100036E000F039F809A800780121084301F038
:10EA2000E3F8FFF75BFC012804D0FFE70AA8002108
:10EA3000017025E005A800210170FFE705A8007816
:10EA400006A90978491E88420EDAFFE700F04EFA5F
:10EA5000079905AA12788854FFF798FCFFE70598F4
:10EA6000401C05A90870E9E700F040FA079905AADB
:10EA70001278885400F02CF80AA801210170FFE7F1
:10EA80000AA800780BB0F0BD80B586B01F4840F2F0
:10EA9000002101600522059010460491039200F0C8
:10EAA000ADF840F2001005990860039A02901046F4
:10EAB00000F0A4F8144804990160039A01901046EC
:10EAC00000F09CF802980199086006B080BDC0462D
:10EAD00080B584B00C4840F200210160022003910F
:10EAE00000F08CF8094840F2001101600521029005
:10EAF0000846019100F082F8039802990860019895
:10EB000000F07CF804B080BD2804004818040048D8
:10EB1000FFE7FEE710B584B0024603AB1870029120
:10EB20002A4800781978029B012400921A4623464D
:10EB3000FFF740FF01A908700878012804D1FFE71A
:10EB400001A80021017009E001A80078002804D183
:10EB5000FFE701A806210170FFE7FFE701A80078A1
:10EB600004B010BD70B588B01346044607AD2870D8
:10EB7000069105A8027004A900220A70134A1278AF
:10EB80002D78069E00780390104602912946324661
:10EB9000039D01932B460094FFF70CFF0299087028
:10EBA0000878012804D1FFE704A80021017009E0DA
:10EBB00004A80078002804D1FFE704A8062101700A
:10EBC000FFE7FFE704A8007808B070BDC10100208E
:10EBD000B0B586B01346044605AD2870049103A86D
:10EBE00002702978049A0078029008461146029A29
:10EBF00001930094FFF7B6FF06B0B0BD82B001905C
:10EC000001980090FFE70098411E009100280BD06A
:10EC1000FFE700BF00BF00BF00BF00BF00BF00BFD5
:10EC200000BF00BF00BFEEE702B070474248006877
:10EC3000424988421AD3FFE745480088302804DC5F
:10EC4000FFE74448464901600FE041480088312809
:10EC50000ADBFFE73E480088632805DCFFE73D4804
:10EC6000C8213F4A4250FFE7FFE75AE032480068B8
:10EC70003349884226D3FFE72F480068314988424C
:10EC800020D8FFE732480088302807DCFFE730480B
:10EC9000022101802F483149416012E02C48008850
:10ECA00031280DDBFFE72A480088632808DCFFE7EE
:10ECB0002848CC21294A4250254834210180FFE7C9
:10ECC000FFE72DE01C4800681F4988420FD3FFE78B
:10ECD000194800681D49884209D8FFE71C48018887
:10ECE0004A1C028088001B491B4A0A5017E0124840
:10ECF000006840F2F511884210D3FFE70E48006823
:10ED0000800918280AD8FFE7114801884A1C0280A8
:10ED10008800104940F230220A50FFE7FFE7FFE782
:10ED2000FFE70B480088652804DBFFE7084800215F
:10ED30000180FFE77047C046FC010020411F000032
:10ED4000311100002723000041060000931100004C
:10ED5000C6080020840300209A06000094110000D9
:10ED60002823000080B582B001900091019800999D
:10ED70000FF0B8FB019800990FF0B4FB01980099CF
:10ED80000FF0B0FB019800990FF0ACFB02B080BD12
:10ED900070470000B0B592B00C46054610900F9138
:10EDA0000E920D930F9809940895FEF751FD334A82
:10EDB000334BFEF7B3FB334A334BFEF7FDFAFEF756
:10EDC0005BFD0C9010980C99FEF773FA0B900020E5
:10EDD0000A900B990E98026807901046FEF718FAF1
:10EDE00007990860294800680B99FEF76AFA2849D4
:10EDF00009680E9A1268069008461146FEF761FAF5
:10EE00000699059008460599FEF702FA2149096816
:10EE10000B9A0D9B1B680490104603911946FEF750
:10EE200048FA0399029008460299FEF74AFA0499B3
:10EE3000019008460199FEF7EBF90A900B980D999D
:10EE400008600A981449FEF749FC002803D1FFE73F
:10EE5000134811900FE00A981049FEF75BFC002858
:10EE600004D1FFE740F2F410119004E00A98FEF795
:10EE7000B7FC1190FFE7119812B0B0BD984C158CFB
:10EE80004AEAB43F2DB29DEFA72647C0B00100204B
:10EE9000D8010020D401002000401C450000FA43A6
:10EEA000C4090000704780B582B00190019800212C
:10EEB00000910FF017FB019800990FF013FB0198D8
:10EEC00000990FF00FFB019800990FF00BFB02B0B7
:10EED00080BD80B584B0024603AB187002911878EB
:10EEE00002990192FFF716FE04B080BD80B586B08E
:10EEF0002348016803229204914301600168016084
:10EF000005A800210170FFE705A80078072823DC89
:10EF1000FFE71C4840F200110160012003900291BC
:10EF2000FFF76CFE1848029901600398FFF766FE30
:10EF300004984000124940F2002201900846114610
:10EF400003F056F90199014304A80170FFE7059801
:10EF5000401C05A90870D7E70A4840F2001101607B
:10EF6000074801680322920491430160016801226D
:10EF700092041143016004A8007806B080BDC04629
:10EF800000040048280400481804004880B588B0F0
:10EF9000024606AB1870059104A80021017006997D
:10EFA00003AB1970012102901846019211F06CF820
:10EFB000029908700878002804D0FFE7049807A990
:10EFC000087009E0059801210EF0FCFF04A9087003
:10EFD000049807A90870FFE707A8007808B080BD6B
:10EFE00080B588B0024606AB1870059104A80021D0
:10EFF0000170069903AB1970012102901846019225
:10F0000010F06CFF029908700878002804D0FFE720
:10F01000049807A9087009E0059801210EF018FF6F
:10F0200004A90870049807A90870FFE707A80078EA
:10F0300008B080BD704789B00790002006900798FF
:10F04000059004A8082101700798002803D1FFE764
:10F05000002008907FE0FFE705980078302807D36C
:10F06000FFE70598007801213A28039123D3FFE7B1
:10F0700005980078412807D3FFE70598007801211B
:10F080004728039117D3FFE70598007800216128EE
:10F0900002910DD3FFE7059800780121002267282F
:10F0A0000192009101D30198009000980290FFE72F
:10F0B00002980390FFE70398C007002848D0FFE7B5
:10F0C00004A80078002801D1FFE741E00498401E21
:10F0D00004A90870FFE70598007830280FD3FFE7F0
:10F0E0000598007839280AD8FFE7069800010599A5
:10F0F0004A1C05920978081830380690FFE70598F1
:10F10000007841280FD3FFE70598007846280AD8F1
:10F11000FFE70698000105994A1C0592097808182E
:10F1200037380690FFE70598007861280FDBFFE786
:10F130000598007866280ADCFFE706980001059923
:10F140004A1C05920978081857380690FFE783E7AC
:10F1500006980890FFE7089809B0704786B00590B8
:10F1600004A82B21017000200390059800782D2819
:10F1700007D1FFE70598401C059004A82D210170D8
:10F18000FFE7FFE7059800780021302802910DDBAA
:10F19000FFE705980078012100223A2801920091AA
:10F1A00001DB0198009000980290FFE70298C007E9
:10F1B00000280BD0FFE703980A2141430598421C21
:10F1C00005920078081830380390DBE704A800782F
:10F1D0002D2804D1FFE7039840420390FFE70398EE
:10F1E00006B070478AB008900020079008990691F1
:10F1F00005A908220A7004A90870069800782D282D
:10F2000007D1FFE704A8012101700698401C069071
:10F2100007E00898002803D1FFE70020099089E063
:10F22000FFE7FFE706980078302807D3FFE7069846
:10F23000007801213A28039123D3FFE7069800784C
:10F24000412807D3FFE7069800780121472803915A
:10F2500017D3FFE7069800780021612802910DD3AB
:10F26000FFE70698007801210022672801920091AB
:10F2700001D30198009000980290FFE70298039054
:10F28000FFE70398C007002848D0FFE705A80078EB
:10F29000002801D1FFE741E00598401E05A908704C
:10F2A000FFE70698007830280FD3FFE7069800782C
:10F2B00039280AD8FFE70798000106994A1C0692E8
:10F2C0000978081830380790FFE706980078412839
:10F2D0000FD3FFE70698007846280AD8FFE707987B
:10F2E000000106994A1C06920978081837380790D9
:10F2F000FFE70698007861280FDBFFE706980078A3
:10F3000066280ADCFFE70798000106994A1C069266
:10F310000978081857380790FFE783E704A80078B2
:10F32000002804D0FFE7079864300790FFE70798AC
:10F330000990FFE709980AB07047000080B584B0D3
:10F3400002900298401E000E002803D0FFE7012023
:10F35000039013E00298401E0A4908600020C14350
:10F36000032201900846114600F0BAFC06480199B4
:10F3700001600648072202600391FFE7039804B08A
:10F3800080BDC04614E000E018E000E010E000E0BE
:10F3900080B502F0E3F880BD10B582B01D48016869
:10F3A000012211430160FFE71A4800688007002826
:10F3B00001D4FFE7F8E71848016803229143016090
:10F3C00014490B68154C23400B600168144B19401D
:10F3D00001600168134B19400160134801680F2355
:10F3E000994301601148016840F203139943016099
:10F3F00001689207914301600D480021016001916D
:10F4000010F054F80120C00601990DF003FF02B07E
:10F4100010BDC0460010024004100240FFFFF2FE83
:10F420000C00FF08FFFF007F2C100240301002404C
:10F430000810024080B584B001208107039008467F
:10F44000039910F0EAFA012828D1FFE7012081078B
:10F4500002900846029910F0D7FA07F069FE0028DA
:10F460001BD1FFE70E4802780E490623019008469B
:10F47000194602F041FE01980178002906D1FFE704
:10F480000948012101700648017005E00648002185
:10F49000017003480170FFE7FFE7FFE704B080BD9C
:10F4A000C0010020000400480202002080B50A4884
:10F4B000012110F0B2FA01280DD1FFE70648012121
:10F4C00010F0A2FA0548416802680023521C594115
:10F4D00002604160FFE780BD001000407002002024
:10F4E00080B50848012110F098FA012809D1FFE7FA
:10F4F0000448012110F088FA01F0B6FD10F002F87E
:10F50000FFE780BD0014004080B5084801684A1C30
:10F5100002600748814204D3FFE7044800210160EC
:10F52000FFE70448012110F06FFA80BD6803002056
:10F53000B9820100004C014081B0009000BF01B0D1
:10F540007047000080B58EB09848994910F0CEFB06
:10F55000002800D197E0954810F0FCFA0DA908703A
:10F5600094480078632808D8FFE70D9891490A78F5
:10F57000531C0B7090498854FFE78C488C490C90C1
:10F5800010F094FB8D490C9810F0B0FB01281CD0B2
:10F59000FFE786488A4910F0A9FB012815D0FFE74C
:10F5A0008248884910F0A2FB01280ED0FFE77F486F
:10F5B000854910F09BFB012807D0FFE77B48834972
:10F5C00010F094FB01285AD1FFE778487B490B9053
:10F5D00010F06CFB7A490B9810F068FB79490B9896
:10F5E00010F064FB78490B9810F060FB77490B989A
:10F5F00010F05CFB00200B990A9008460A9910F065
:10F60000BDFB05200B9909900846099910F028FBCD
:10F6100004200B9908900846089910F021FB40F24D
:10F6200000200B9907900846079910F019FB082055
:10F630000B9906900846069910F012FB0B98089952
:10F6400010F09CFB5A490B9810F030FB0B9809996D
:10F6500010F019FB0B98089910F015FB0B980799FF
:10F6600010F011FB0B98069910F00DFB5148017832
:10F67000574A11700A99017056480170FFE75548C2
:10F6800001210170FFE74948534910F02FFB012881
:10F6900000D089E045484A4910F028FB012815D0E0
:10F6A000FFE74248474910F021FB01280ED0FFE751
:10F6B0003E48454910F01AFB012807D0FFE73B48B8
:10F6C000424910F013FB01285FD1FFE73748424958
:10F6D000059010F0EBFA3949059810F0E7FA38492F
:10F6E000059810F0E3FA3749059810F0DFFA36492B
:10F6F000059810F0DBFA3549059810F0D7FA00208C
:10F70000059904900846049910F038FB05200599E6
:10F7100003900846039910F0A3FA0420059902907B
:10F720000846029910F09CFA40F2002005990190D9
:10F730000846019910F094FA0820059900900846AF
:10F74000009910F08DFA1B480178214A1170049934
:10F7500001700598029910F011FB1549059810F0F9
:10F76000A5FA0598039910F08EFA0598029910F001
:10F770008AFA0598019910F086FA0598009910F018
:10F7800082FA144804990170FFE70848124910F002
:10F790008DFA084801780E4A1170002101700D4859
:10F7A000017002210170FFE70EB080BD00440040EF
:10F7B00005000507C405002003020020050003071B
:10F7C0000800000700020307000202070002010709
:10F7D000C5050020C60500200400040770B5BEB0B2
:10F7E0003D90DA481DA91CC81CC11CC81CC13CC8DE
:10F7F0003CC1D74813A91CC81CC11CC81CC13CC8AB
:10F800003CC1D44809A91CC81CC11CC81CC13CC8A7
:10F810003CC10C2035A920220891FFF7D9F908999D
:10F820004A7B12020B7BD21833AB1A80CA7F1206B6
:10F830008B7F1B04D2184B7F1B02D2180B7FD21870
:10F840003092CA7E12028B7ED21831AB1A80CA7AED
:10F8500012068B7A1B04D2184B7A1B02D2180B7A31
:10F86000D2182F924A7D12020B7DD21832AB1A8029
:10F870004A7E12060B7E1B04D218CB7D1B02D218C7
:10F880008B7DD2182C922C9AFF231B069A432C9224
:10F890002F9A12012C9BB2FBF3F22B922B9A0A2384
:10F8A0001C46544341F22032121BAB4CB4FBF2F223
:10F8B00040F28274121B92FBF3F22892289A002ADB
:10F8C00003D5FFE700202890FFE7339828994018D8
:10F8D00033A908803398A14A1288801A088030988A
:10F8E0009F49884208D3FFE7309800022C99B0FB6B
:10F8F000F1F080002E9014E030989A49884208D3A5
:10F90000FFE7309840022C99B0FBF1F040002E90B8
:10F9100006E0309880022C99B0FBF1F02E90FFE7C2
:10F92000FFE7319800042C99B0FBF1F040002D90D6
:10F9300034A800210170FFE734A80078082800DD12
:10F94000B5E02D9834A9097889001DAA891849685D
:10F95000884263D2FFE734A80078800013A90A1810
:10F9600052680958511A2D9A1DAB185882420791B6
:10F9700009D9FFE72D9834A9097889001DAA5158A3
:10F98000401A069008E034A8007880001DA90858A5
:10F990002D99401A0690FFE706980799484334AA24
:10F9A00013789B001DACE5186D68E658AD1BB0FBE5
:10F9B000F5F013ADEB58C0182A901078800009AA12
:10F9C00013185B6812589A1A2D9B2058834205928F
:10F9D00009D9FFE72D9834A9097889001DAA515843
:10F9E000401A049008E034A8007880001DA9085847
:10F9F0002D99401A0490FFE704980599484334AACA
:10FA0000127892001DAB9C1864689B58E31AB0FBF7
:10FA1000F3F009AB9A588018299048E02D98269960
:10FA200088423DD3FFE71C981B99401A2D99259ACF
:10FA30009142039005D9FFE72D982599401A02902D
:10FA400004E025982D99401A0290FFE70298039947
:10FA50004843269A259BD21AB0FBF2F01B9A8018D5
:10FA60002A901298119A801A2D9A259B9A420190F9
:10FA700005D9FFE72D982599401A009004E02598B4
:10FA80002D99401A0090FFE7009801994843269A63
:10FA9000259BD21AB0FBF2F0119A8018299006E04B
:10FAA000FFE7FFE73498401C34A9087044E72E981C
:10FAB0002A99884203D2FFE70020279013E02E986E
:10FAC0002999884203D9FFE7642027900AE02E98FD
:10FAD0002A99401A642242432998401AB2FBF0F056
:10FAE0002790FFE7FFE727985A2804D3FFE73D98C0
:10FAF000002101820CE027981E2804D3FFE73D98DF
:10FB00000121018203E03D98FF210182FFE7FFE729
:10FB100033A8008800B2312809DCFFE73098124989
:10FB2000884204D8FFE73D98FF210182FFE7339820
:10FB30003D99088030983D99486031983D990881F9
:10FB400027983D99C86000203EB070BD301D020866
:10FB5000081D0208581D020898DA8C009005002044
:10FB600001127A0001093D00FF340C0080B582B01B
:10FB7000019001990320FFF7ACF902B080BD80B578
:10FB800086B0049003A80021017002AA11700190B0
:10FB90001046FFF7EBFF019908700878002804D0A1
:10FBA000FFE7039805A908701AE002A80078C007CB
:10FBB000002804D1FFE705A80121017010E0049896
:10FBC000FFF70CFE03A908700878002804D0FFE7AF
:10FBD000039805A9087003E005A800210170FFE75C
:10FBE00005A8007806B080BD80B584B0014603AAA0
:10FBF0001070039801AA107002A800220270FFE79B
:10FC000002A80078072829DCFFE7174840F2001116
:10FC1000016001A800780006002805D5FFE7134819
:10FC200040F20021016004E00F4840F20021016031
:10FC3000FFE701200090FEF7E1FF0C4840F20011C1
:10FC400001600198400001A908700098FEF7D6FFF6
:10FC5000FFE70298401C02A90870D1E7024840F271
:10FC60000011016004B080BD280400481804004859
:10FC700081B001466A461070107840B2002811D455
:10FC8000FFE76846007840B21F2102460A40012182
:10FC9000914040098000044A8150BFF34F8FBFF369
:10FCA0006F8FFFE701B0704780E100E081B001464F
:10FCB0006A461070107840B200280DD4FFE76846FD
:10FCC000007840B21F2102460A40012191404009BC
:10FCD0008000024A8150FFE701B0704700E100E078
:10FCE00070B582B0024601AB18700091187840B22E
:10FCF000002817D4FFE701A8017849B20322D243B4
:10FD00001140384BC958007840B28407E40EFF25F3
:10FD1000A540A943009DAD01EDB2A5402943104087
:10FD2000C1501AE001A801780F22114008390323BD
:10FD3000DB4319402A4C0959007840B28507ED0E83
:10FD4000FF26AE40B143009EB601F6B2AE4031434D
:10FD50001040083818400151FFE702B070BDC0469E
:10FD600070B582B0024601AB18700091187840B2AD
:10FD7000002817D4FFE701A8017849B20322D24333
:10FD80001140184BC958007840B28407E40EFF2593
:10FD9000A540A943009DAD01EDB2A5402943104007
:10FDA000C1501AE001A801780F221140083903233D
:10FDB000DB4319400A4C0959007840B28507ED0E23
:10FDC000FF26AE40B143009EB601F6B2AE403143CD
:10FDD0001040083818400151FFE702B070BDC0461E
:10FDE0001CED00E000E400E0BFF34F8F0848094934
:10FDF0000160BFF34F8FFFE700BFFDE7BFF34F8FF9
:10FE0000034804490160BFF34F8FFFE700BFFDE7E0
:10FE10000CED00E00400FA0510B5FFB08DB003460C
:10FE20008BAC20708A918992FC4801467831889188
:10FE30000146B431879186903C30859084938394B9
:10FE40000BF0E4FD032007F053FE889901224A706D
:10FE500087994A7086994A7085994A70F9494A7516
:10FE60008A9A8A610022CA61899ACA60899A8A60DC
:10FE700083990A78402A829201D900F04AFD82983B
:10FE8000810001A251188F4600F080B800F041BDFA
:10FE900000F03FBD00F03DBD00F03BBD00F080B87C
:10FEA00000F08EB800F09CB800F0AEB800F0C0B81A
:10FEB00000F0D6B800F0EDB800F0FBB800F009B9DA
:10FEC00000F017B900F025B900F032B900F03FB9E1
:10FED00000F04CB900F059B900F06AB900F077B9F8
:10FEE00000F088B900F09CB900F0D2B900F0E3B995
:10FEF00000F0F4B900F005BA00F019BA00F02ABA1F
:10FF000000F03BBA00F04CBA00F05DBA00F06EBAF7
:10FF100000F081BA00F092BA00F0A5BA00F0B6BACB
:10FF200000F0C7BA00F0D8BA00F0E9BA00F0FABAA7
:10FF300000F00BBB00F01CBB00F030BB00F041BB7D
:10FF400000F052BB00F065BB00F078BB00F0AEBB28
:10FF500000F0C1BB00F0D4BB00F0E5BB00F0F6BB85
:10FF600000F00BBC00F020BC00F031BC00F042BC43
:10FF700000F053BC00F067BC00F07BBC00F091BC0B
:10FF800000F0AABC00F0C3BC00F0C2BC0BF03EFD08
:10FF9000032007F0ADFD819002F0B2FF00F0BAFC43
:10FFA000A9480090032002210A220023809007F034
:10FFB00053FD80997F90084607F0B4FD00F0AAFC3D
:10FFC000A2480090032002210A2200237E9007F01D
:10FFD00043FD7E997D90084607F0A4FD00F09AFC51
:10FFE000984819218170C17099480090032002211E
:10FFF0000A2200237C9007F02FFD7C997B90084615
:020000040801F1
:1000000007F090FD00F086FC8E4819218170C170C8
:1000100090480090032002210A2200237A9007F0E2
:100020001BFD7A997990084607F07CFD00F072FC80
:100030008348012141703D210022425486480090AE
:10004000032002210A23789077921A46779B07F0C3
:1000500003FD78997690084607F064FD00F05AFC9D
:100060007748002141703D22012383547A48009053
:10007000032002220A237590749111461A46749B3C
:1000800007F0EAFC75997390084607F04BFD00F005
:1000900041FC72480090032002210A220023729042
:1000A00007F0DAFC72997190084607F03BFD00F00A
:1000B00031FC6B480090032002210A22002370903B
:1000C00007F0CAFC70996F90084607F02BFD00F00E
:1000D00021FC64480090032002210A2200236E9034
:1000E00007F0BAFC6E996D90084607F01BFD00F012
:1000F00011FC5D480090032002210A2200236C902D
:1001000007F0AAFC6C996B90084607F00BFD00F015
:1001100001FC56480090032002210A2200236A9025
:1001200007F09AFC6A996990084607F0FBFCF1E336
:100130004F480090032002210A220023689007F014
:100140008BFC68996790084607F0ECFCE2E34948AD
:100150000090032002210A220023669007F07CFC15
:1001600066996590084607F0DDFCD3E342480090AD
:10017000032002210A220023649007F06DFC649999
:100180006390084607F0CEFCC4E32E480C210171B1
:1001900041713A480090032002210A220023629014
:1001A00007F05AFC62996190084607F0BBFCB1E386
:1001B00033480090032002210A220023609007F0B8
:1001C0004BFC60995F90084607F0ACFCA2E31D4829
:1001D0002D21017141712B480090032002210A2238
:1001E00000235E9007F038FC5E995D90084607F0AA
:1001F00099FC8FE313482D21017141712248009031
:10020000032002210A2200235C9007F025FC5C9960
:100210005B90084607F086FC7CE3C0461007002090
:100220001A480090032002210A2200235A9007F066
:1002300013FC5A995990084607F074FC6AE3C046CB
:10024000100700208C0800205D900108DD91010856
:1002500079B0010885B2010829AC0108559301085D
:1002600045940108659F0108F9A0010825B7010818
:1002700099B8010815A70108A1A5010865AE0108F4
:1002800099B4010891BC010881BE0108C58E01081E
:10029000F6480F2101714171F548009003200221B9
:1002A0000A220023589007F0D7FB58995790084628
:1002B00007F038FC2EE3ED480F2101714171ED4844
:1002C0000090032002210A220023569007F0C4FB6D
:1002D00056995590084607F025FC1BE3E3480F218B
:1002E00001714171E4480090032002210A22002399
:1002F000549007F0B1FB54995390084607F012FC54
:1003000008E3DE480168DE4A11600068DD490860E4
:10031000DD480090032002210A220023529007F0BA
:100320009BFB52995190084607F0FCFBF2E2CF4844
:10033000082101714171D5480090032002210A2251
:100340000023509007F088FB50994F90084607F023
:10035000E9FBDFE2C5480C218170C170CC480090F8
:10036000032002210A2200234E9007F075FB4E99CC
:100370004D90084607F0D6FBCCE2BC480C218170BA
:10038000C170C4480090032002210A2200234C902F
:1003900007F062FB4C994B90084607F0C3FBB9E2AB
:1003A000B2480F218170C170B9480090032002212A
:1003B0000A2200234A9007F04FFB4A9949900846C9
:1003C00007F0B0FBA6E2A9480F218170C170B148C7
:1003D0000090032002210A220023489007F03CFBF2
:1003E00048994790084607F09DFB93E29F480A21F1
:1003F00001714171A8480090032002220023469019
:1004000045911146459A07F027FB469944900846C6
:1004100007F088FB7EE295480821017141719F48F1
:100420000090032002210A220023439007F014FBCE
:1004300043994290084607F075FB6BE28B48062112
:10044000017141718170C1709548009003200221B3
:100450000A220023419007F0FFFA41994090084694
:1004600007F060FB56E281480C218170C1708D4815
:100470000090032002210A2200233F9007F0ECFAAB
:100480003F993E90084607F04DFB43E277480C2128
:100490008170C17084480090032002210A22002349
:1004A0003D9007F0D9FA3D993C90084607F03AFB99
:1004B00030E26E480C218170C1707A4800900320B0
:1004C00002210A2200233B9007F0C6FA3B993A909A
:1004D000084607F027FB1DE2644810218170C170B7
:1004E00071480090032002210A220023399007F06E
:1004F000B3FA39993890084607F014FB0AE25B48D2
:1005000008218170C1705B480090032002210A22FB
:100510000023379007F0A0FA37993690084607F085
:1005200001FBF7E1514808210171417152480090E7
:10053000032002210A220023359007F08DFA359915
:100540003490084607F0EEFAE4E1F548082101711D
:100550004171F9480090032002210A2200233390C0
:1005600007F07AFA33993290084607F0DBFAD1E1C6
:10057000EB480F21C1608160082101714171F7488A
:100580000090032002210A220023319007F064FA30
:1005900031993090084607F0C5FABBE1E0481021D8
:1005A0008170C170EC480090032002210A220023D0
:1005B0002F9007F051FA2F992E90084607F0B2FAC3
:1005C000A8E1D74810218170C170DA48009003205B
:1005D00002210A2200232D9007F03EFA2D992C903B
:1005E000084607F09FFA95E1CD480A218170C17055
:1005F000D94800900320022200232B902A91114613
:100600002A9A07F029FA2B992990084607F08AFAC6
:1006100080E1C3480A218170C170C6480090032060
:1006200002220023289027911146279A07F014FAF6
:1006300028992690084607F075FA6BE1B8480F2113
:10064000C16081600A2101714171C248009003209C
:1006500002220023259024911146249A07F0FCF9E8
:1006600025992390084607F05DFA53E18C08002095
:10067000A5AA010891BC010881BE01080409002057
:100680000C090020080900203DBA010865AE0108E8
:10069000F19B0108A59D010829AC010829A90108C1
:1006A00015C9010879B0010885B201089C481E21CE
:1006B0008160082101714171A54800900320022149
:1006C0000A220023229007F0C7F9229921900846B8
:1006D00007F028FA1EE192480621017141718170EC
:1006E000C1709A480090032002210A220023209022
:1006F00007F0B2F920991F90084607F013FA09E1B4
:1007000087480F218170C1708F480090032002211B
:100710000A2200231E9007F09FF91E991D9008469B
:1007200007F000FAF6E07E480F218170C17085481D
:100730000090032002210A2200231C9007F08CF96C
:100740001C991B90084607F0EDF9E3E0744800217E
:1007500081700F22C2707C480090032002220A237D
:100760001A90199111461A46199B07F075F91A99B2
:100770001890084607F0D6F9CCE06948002181704E
:100780000F22C2706F480090032002220A231790A4
:10079000169111461A46169B07F05EF917991590A7
:1007A000084607F0BFF9B5E05D4808218170C170C7
:1007B00063480090032002210A220023149007F0CE
:1007C0004BF914991390084607F0ACF9A2E054488D
:1007D00008210171417159480090032002210A2229
:1007E0000023129007F038F912991190084607F08B
:1007F00099F98FE04A480821017141714E480090F3
:10080000032002210A220023109007F025F91099F5
:100810000F90084607F086F97CE041484449816022
:10082000192181702321C1704248009003200221C8
:100830000A2200230E9007F00FF90E990D9008463A
:1008400007F070F966E0364812218170C170092105
:100850000171417135480090032002210A220023D2
:100860000C9007F0F9F80C990B90084607F05AF92C
:1008700050E02B4812218170C1700A210171417131
:10088000294800900320022200230A900991114672
:10089000099A07F0E1F80A990890084607F042F92A
:1008A00038E01E48792101224254B52100224254E9
:1008B0001B48122181701B480090032002210A234B
:1008C000079006921A46069B07F0C6F8079905900E
:1008D000084607F027F91DE010487921002242540C
:1008E000B521012343540E48122181700D48009018
:1008F000032002210A23049003921A46039B07F067
:10090000ABF804990290084607F00CF902E001E008
:1009100000E0FFE77FB00DB010BDC046100700201B
:100920008C08002089A20108958B0108098701081D
:1009300014050000A59D0108A5AA010881BE0108B3
:1009400091BC010885B2010879B0010815C90108F8
:1009500029A9010829AC0108F19B010865AE01082D
:1009600081480168082211430160FFE7F6480068EA
:100970000007002801D5FFE7F8E7F34801680422E3
:1009800011430160FFE7F04800684007002801D5E7
:10099000FFE7F8E77047C04683B0024602AB187025
:1009A000019118780128009004D0FFE700980228F0
:1009B00018D02FE00198002813D0FFE701981028E5
:1009C0000FD8FFE7C84801680F2212059143016064
:1009D00001990905124BC918114002680A430260C7
:1009E000FFE718E00198002813D0FFE701980428DA
:1009F0000FD8FFE7094801680322120591430160FF
:100A000001990905064BC918114002680A430260A2
:100A1000FFE700E0FFE703B07047C046382401401D
:100A20000000F0FF81B0009000980349084003499E
:100A3000086001B07047C046FF0F0000C0240140AD
:100A400081B000900098002807D0FFE7BE480168F9
:100A500040F600021143016006E0BB48016840F621
:100A6000000291430160FFE701B0704780B540F29A
:100A70004010FFF7D7FFB4480068C007002806D130
:100A8000FFE7B1480168012211430160FFE780BD23
:100A900010B582B00A46034601AC2070684601706A
:100AA000007800281BD0FFE701A80078C0070028C5
:100AB00007D0FFE7A4480168012212051143016035
:100AC000FFE701A800788007002807D5FFE79E48C8
:100AD000016848F2000211430160FFE71AE001A833
:100AE0000078C007002807D0FFE797480168012277
:100AF000120591430160FFE701A8007880070028F4
:100B000007D5FFE79048016848F200029143016071
:100B1000FFE7FFE702B010BD83B0024602AB1870DA
:100B2000019118780128009004D0FFE7009802286E
:100B30000BD015E0844801680722520491430160FC
:100B4000019902680A4302600BE07F48016847F29E
:100B5000000291430160019902680A43026000E0CB
:100B6000FFE703B07047C0460824014081B0009001
:100B700000980D490A6882430A6001B07047C04678
:100B800082B0019068460021017007480068019911
:100B9000084204D0FFE7684601210170FFE768467C
:100BA000007802B07047C04600240140B0B585B05F
:100BB0000B46044604AD287003A801700292287801
:100BC000052818DCFFE74A480168019104A90A7862
:100BD00005231C4654431F22A240019C94430194C8
:100BE00003AA127809784B439A4001991143019165
:100BF0000199016039E004A800780B281ADCFFE7AE
:100C00003A480168019104A90A7805231C46544317
:100C10001E3C1F22A240019C9443019403AA127817
:100C200009784B431E3B9A40019911430191019968
:100C3000016019E02C480168019104A90A78052394
:100C40001C4654433C3C1F22A240019C9443019407
:100C500003AA127809784B433C3B9A40019911430F
:100C6000019101990160FFE7FFE703A800780928D7
:100C700017DCFFE720480168009103A90A780323E5
:100C80001C4654430722A240009C94430094029ABD
:100C900009784B439A4000991143009100990160F3
:100CA0001FE003A80078132819DCFFE7114801684A
:100CB000009103A90A7803231C4654431E3C0722D3
:100CC000A240009C94430094029A09784B431E3B37
:100CD0009A400099114300910099016000E0FFE7FC
:100CE000FFE705B0B0BDC0462C24014030240140D0
:100CF000342401400C2401401024014001480068C4
:100D000080B270474C24014081B001466A461070A1
:100D10001078C007002807D0FFE70B4801680122C0
:100D2000920511430160FFE76846007880070028BC
:100D300007D5FFE70448016801225205114301600D
:100D4000FFE701B07047C0460824014010B586B0E7
:100D50000920059006F0CCFEC24900220A705C49C9
:100D60000A60A1490A604A608A60A0490A604A6034
:100D70008A600949009102210A23059C04902046BB
:100D800003921A46039B06F067FE059902900846F7
:100D900006F0C8FE06B010BD9D0D010880B58EB0EE
:100DA0000D904B480168491C0160006840F22D110C
:100DB000884234D3FFE7092006F09AFE8A490A6880
:100DC000484B0C9010460B9119460A93FCF7B6FA63
:100DD0000B99086048680A99FCF7B0FA0B994860CB
:100DE00088680A99FCF7AAFA0B9988607F4802681C
:100DF000099010460A99FCF7A1FA09990860486819
:100E00000A99FCF79BFA0999486088680A99FCF7E7
:100E100095FA0999886093480122027056E000F023
:100E200063F87048016808900846FCF711FD294AEC
:100E3000294BFCF7C1FA6C4A1368079018460691D3
:100E40000592FCF705FD079A069BFCF7B5FAFCF73F
:100E500013FD0599086008984168059A5068FCF7E9
:100E6000D7F90599486008988068FCF7F1FC1B4A9F
:100E70001B4BFCF7A1FA059A93680490184603915E
:100E8000FCF7E6FC049A039BFCF796FAFCF7F4FCEB
:100E90000599886056480168544A136802901846BC
:100EA0000192FCF7B5F90199086002984168019A2E
:100EB0005068FCF7ADF90199486002988168019A81
:100EC0009068FCF7A5F901998860FFE70EB080BD36
:100ED000F0010020CDCCCCCCCC4C23C03333333309
:100EE0003333FBBF0000964380B53E480CF0C4F995
:100EF0003F480CF025FA80BD80B50CF0A7F980BD05
:100F0000F0B58DB00C9057480078002801D1FFE76C
:100F100066E0FFF7E9FF33480B900EF077FF0B9880
:100F200000F0A2FD304801680B9A13680A90184639
:100F3000FCF7BFF90B9908600A9841680B9A506852
:100F4000FCF7B7F90B9948600A9881680B9A90688A
:100F5000FCF7AFF90B99886024480168244A1368AC
:100F6000099018460892FCF7A4F9089908600998B6
:100F70004168089A5068FCF79CF9089948600998FC
:100F80008168089A9068FCF794F908998860086865
:100F900001F0DEFD1749086008984068079101F0EC
:100FA000B9FE07994860089882680B684C680B9DE9
:100FB0002E68A9686868104F0497104D0395104D6E
:100FC0000295019300923246234606970DF0F8FBF6
:100FD000069800680B49FCF71BF906990860FFE7C3
:100FE0000DB0F0BDD4080020C8080020E0080020A3
:100FF000EC080020F808002004090020C0050020AB
:10100000AC0500200000344380B586B015480021AF
:1010100001700B480090082002220A2305900491D9
:1010200011461A46049B06F017FD059903900846E1
:1010300006F078FD0290FFF789FE06B080BDC0463D
:10104000010F010880B582B0064800210170092017
:1010500006F04EFD08210190084606F049FD02B059
:1010600080BDC046F401002080B531480078B54904
:101070000978884215D0FFE7B248007800280AD1E5
:10108000FFE72C48002101802B4801802B48017884
:10109000491C017000E0FFE7AA4800782449087065
:1010A000FFE7A8480078002818D1FFE72348007818
:1010B000002812D0FFE71F480188491C01800088E2
:1010C000C82809DBFFE720480FF0BAF819490022C9
:1010D0000A801A490A70FFE7FFE727E017480078FF
:1010E000002822D0FFE714480188491C01800088AD
:1010F000322819DBFFE711480078012804D1FFE707
:1011000010480FF09DF809E00C480078022804D13F
:10111000FFE70B480FF094F8FFE7FFE707480021CF
:10112000017005480180FFE7FFE7FFE780BDC0468B
:10113000370500203005002034050020320500204E
:101140007F28020896280208AD28020880B582B0E0
:10115000014601AA10701078082801DBFFE74DE076
:1011600001A800780728009047D80098810001A2C4
:1011700051188F4600F00EB800F011B800F014B806
:1011800000F017B800F01AB800F01DB800F02BB846
:1011900000F02EB822490020FEF7CEF92EE01F49BC
:1011A0000020FEF7C9F929E01B490020FEF7C4F929
:1011B00024E018490020FEF7BFF91FE01449002081
:1011C000FEF7BAF91AE0BB48407E002805D0FFE7D9
:1011D0000E490020FEF7B0F904E00B490020FEF7AD
:1011E000ABF9FFE70AE007490020FEF7A5F905E0A3
:1011F00003490020FEF7A0F900E0FFE702B080BD40
:10120000C22802080F2902085D290208942A020850
:10121000282B0208DB2A0208462A0208A82902080D
:10122000F729020880B586B0002005900490434954
:1012300005AA03900846114600F08AF8059A40492D
:10124000039B02901846FEF777F90598542804D1BD
:10125000FFE73C48012101700CE00598522804D0BA
:10126000FFE705985A2804D1FFE7364800210170AE
:10127000FFE7FFE705984007800F01282AD1FFE725
:10128000902004A900F064F804998A4A1162049934
:101290000190084600F086F8049A2B490020FEF7DA
:1012A0004BF90498C001C00F002812D0FFE7814815
:1012B000806F00280DD1FFE77E4801218167C26F52
:1012C000521CC2678422815084304168491C4160AD
:1012D000FFE7FFE705984007800F02282CD1FFE7C2
:1012E000902004A900F034F80499724A116204991C
:1012F0000090084600F056F8049A14490020FEF7C2
:101300001BF90498C001C00F002814D1FFE76948F9
:10131000806F01280FD1FFE76648002181670246F0
:10132000783293685B1C936084228150843081689A
:10133000491C8160FFE7FFE706B080BD80F0000038
:10134000BA2B0208360500207A2B02089A2B0208D5
:1013500010B586B0024605AB1880049100200390BA
:1013600002901988122002AB042401921A460093BD
:1013700023460DF047FE0298000600994A781204B1
:1013800080188A7812028018CA788018049A10602F
:101390000398421E904106B010BD80B5FFF742FF92
:1013A00080BD000080B582B0019001980001C00F9F
:1013B00000280BD0FFE73F4890214058002805D176
:1013C000FFE73C48902101224250FFE70198C0000E
:1013D000C00F00280BD0FFE736489C21405800285A
:1013E00005D1FFE733489C2101224250FFE70198D5
:1013F0000001C00F00280BD1FFE72E489021405874
:10140000012805D1FFE72B48902100224250FFE739
:101410000198C000C00F00280BD1FFE725489C2190
:101420004058012805D1FFE722489C210022425064
:10143000FFE7204890214058012815D1FFE71D48BB
:101440009C21405801280FD1FFE71B480078012854
:1014500009D0FFE7184801210170164841760520A0
:10146000FFF774FEFFE7FFE712489021405800287D
:101470001DD1FFE70F489C214058002817D1FFE7F6
:101480000D480078012811D1FFE70B4800210170B9
:101490000848417690228150903041610161C160DD
:1014A000816041600520FFF751FEFFE7FFE702B0D2
:1014B00080BDC04688020020F501002010B586B02E
:1014C00013460C4604900391029204980068029916
:1014D00001930094FCF710F9002804D1FFE705A858
:1014E000012101700FE0049800680399FCF720F9CE
:1014F000002804D1FFE705A8FF21017003E005A83B
:1015000000210170FFE705A8007840B206B010BDC9
:1015100081B00090009817490860FFE715480068FF
:10152000002801D0FFE7F9E701B0704782B00190D1
:10153000094841680068019A80180090FFE7009808
:1015400005494A6809680023081A9A4101D2FFE751
:10155000F5E702B07047C0467002002005480068F9
:10156000002805D0FFE703480168491E0160FFE736
:101570007047C0467802002000BF00BF00BF00BF18
:1015800000BF00BF00BF00BF00BF00BF00BF00BF63
:1015900000BF00BF00BF00BF00BF00BF00BF00BF53
:1015A00000BF00BF00BF00BF00BF00BF00BF00BF43
:1015B00000BF00BF00BF00BF00BF00BF00BF00BF33
:1015C00000BF00BF00BF00BF00BF00BF00BF00BF23
:1015D00000BF00BF00BF00BF00BF00BF00BF00BF13
:1015E00000BF00BF00BF00BF00BF00BF00BF00BF03
:1015F00000BF00BF00BF00BF00BF00BF00BF00BFF3
:1016000000BF00BF00BF00BF00BF00BF00BF00BFE2
:1016100000BF00BF00BF00BF00BF00BF00BF00BFD2
:1016200000BF00BF00BF00BF00BF00BF00BF00BFC2
:1016300000BF00BF00BF00BF00BF00BF00BF00BFB2
:1016400000BF00BF00BF00BF00BF00BF00BF00BFA2
:1016500000BF00BF00BF00BF00BF00BF00BF00BF92
:1016600000BF00BF00BF00BF00BF00BF00BF00BF82
:1016700000BF00BF00BF00BF00BF00BF00BF00BF72
:1016800000BF00BF00BF00BF00BF00BF00BF00BF62
:1016900000BF00BF00BF00BF70470000B0B596B0EC
:1016A0000FA80021017011A90E9008460D91FEF7B8
:1016B00066FA0E9908700D98028812B2562A48DB15
:1016C000FFE711A8008800B2FCF776F8894A8A4B38
:1016D0000C900B91FBF722FF884A894B0C9C0A90D7
:1016E00020460B9D09912946FBF718FF0C9A0B9B8E
:1016F000FBF714FF0C9A0B9BFBF710FF0A9A08905C
:101700001046099B07911946089A079BFBF754FE60
:101710007C4A7D4B0C9C069020460B9D05912946EA
:10172000FBF7FCFE0C9A0B9BFBF7F8FE069A049065
:101730001046059B03911946049A039BFBF73CFE58
:10174000724A734BFBF738FEFCF75EF810A908806D
:1017500003E010A80A210180FFE710A80088704963
:10176000884204DBFFE710A86E490180FFE7694863
:101770000EF066FD10A909886B4A029010460EF023
:101780005FFD6649019008460EF05AFD11A900223E
:101790000A8016B0B0BDC046B0B59EB00FA80021FB
:1017A000017019A90E9008460D91FEF7E8F90E99FF
:1017B00008704F4805F0E5FD11A908700D980188E3
:1017C00009B2562948DBFFE719A8008800B2FBF7E9
:1017D000F3FF484A484B0C900B91FBF79FFE474A9A
:1017E000474B0C9C0A9020460B9D09912946FBF71C
:1017F00095FE0C9A0B9BFBF791FE0C9A0B9BFBF74B
:101800008DFE0A9A08901046099B07911946089A7E
:10181000079BFBF7D1FD3B4A3B4B0C9C06902046B7
:101820000B9D05912946FBF779FE0C9A0B9BFBF764
:1018300075FE069A04901046059B03911946049A7A
:10184000039BFBF7B9FD314A314BFBF7B5FDFBF7C5
:10185000DBFF10A9088003E010A80A210180FFE740
:1018600011A80078632807DCFFE7109811A9097810
:10187000401810A908801DE01198643811A908705B
:1018800010A800880978884207DDFFE7109811A9A1
:101890000978401A10A9088003E01E480EF0D0FC19
:1018A000FFE71D480EF0CCFC1C49029008460EF0E4
:1018B000C7FCFFE710A800881949884204DBFFE74E
:1018C00010A818490180FFE712480EF0B9FC10A9D2
:1018D0000988154A019010460EF0B2FC0F4900909D
:1018E00008460EF0ADFC19A900220A801EB0B0BD5A
:1018F00048D00308C05B2041F163EA3FC19D76BE3A
:10190000C02878BE2D431CEBE2362A3F21B0726816
:1019100091C551C0DC1D0208CD2C02089C1E020896
:10192000A10F00009F0F0000471F0208B0B585B04F
:1019300013460C46049003A8017002A90A7004998A
:10194000484A15688D43156004992E4A15688D43E1
:10195000156004992C4A15688D43156004992B4A2B
:1019600015688D43156000780028019004D0FFE7CA
:101970000198012806D00BE004983A490A6802430E
:101980000A6006E004981F490A6802430A6000E002
:10199000FFE702A80078032800902FD80098810064
:1019A00001A251188F46C04600F006B800F00FB8EB
:1019B00000F018B800F021B8049813490A680243EF
:1019C0000A60049811490A6882430A6017E0049883
:1019D0000D490A6882430A6004980C490A68024368
:1019E0000A600CE0049808490A6802430A600498F7
:1019F00006490A6802430A6001E000E0FFE705B01B
:101A0000B0BDC04604040140080401400C0401407C
:101A100081B0009000981249086001B07047C0463C
:101A200084B002900E4800680299084001900D4869
:101A300000680299084000900198002808D0FFE74C
:101A40000098002804D0FFE703A80121017003E0FB
:101A500003A800210170FFE703A8007804B07047D5
:101A6000140401400004014080B582B00190744824
:101A700000900198006841210906FBF72FFE00281D
:101A80001AD1FFE7009800214180009881800098DA
:101A9000C1800098018100984181009800886328E6
:101AA00005DCFFE700980188491C018003E00098ED
:101AB00000214173FFE723E001980068C121090676
:101AC000FBF728FE00281AD1FFE7009800210180CB
:101AD00000984180009881800098018100984181A0
:101AE0000098C088632805DCFFE70098C188491C7E
:101AF000C18003E0009801214173FFE7FFE7FFE7A2
:101B00000198806841210906FBF7E8FD00281AD1F9
:101B1000FFE7009800210180009841800098C18073
:101B2000009801810098418100988088632805DC35
:101B3000FFE700988188491C818003E0009802211A
:101B40004173FFE723E001988068C1210906FBF794
:101B5000E1FD00281AD1FFE70098002101800098DC
:101B60004180009881800098C18000980181009890
:101B70004089632805DCFFE700984189491C4181C1
:101B800003E0009803214173FFE7FFE7FFE70198B7
:101B9000406841210906FBF7A1FD00281AD1FFE7A3
:101BA000009800210180009881800098C1800098F1
:101BB00001810098418100984088632805DCFFE797
:101BC00000984188491C418003E00098042141733A
:101BD000FFE723E001984068C1210906FBF79AFD61
:101BE00000281AD1FFE70098002101800098418069
:101BF000009881800098C1800098418100980089F8
:101C0000632805DCFFE700980189491C018103E096
:101C1000009805214173FFE7FFE7FFE70098017B8C
:101C2000407B814209D0FFE70098417B0173009817
:101C3000417B04480EF004FBFFE702B080BDC046C4
:101C4000C8050020CF2D020880B582B000F0EEF864
:101C50003C2000F041F800200190FFE701980C497A
:101C60000968884210D2FFE701980003184940181C
:101C700000F040F83C210090084600F02DF8FFE706
:101C80000198401C0190E9E700F02EF802B080BDF9
:101C9000B401002082B00E48009000200190FFE7C0
:101CA00001980C490968884210D2FFE70098006843
:101CB000401C002801D0FFE708E00098001D0090BC
:101CC000FFE7FFE70198401C0190E9E702B0704789
:101CD00000D00308BC01002081B000900098524958
:101CE000086001B07047C0466E4801688022114309
:101CF0000160704780B584B003900120000500F0BA
:101D000027F802A90870087800281BD1FFE765486A
:101D1000016802221143016003990C4B19600168AC
:101D200040231943016001210905019008460092F2
:101D300000F00EF802A9087001980168009A91431A
:101D40000160FFE702A8007804B080BD14200240C3
:101D500080B584B0039002A801210170FFE700F074
:101D600025F802A908700398401E0390FFE702A817
:101D7000007800210128019105D1FFE70398411E59
:101D800088410190FFE70198C0070028E7D1FFE7ED
:101D900002A80078012804D1FFE702A805210170FC
:101DA000FFE702A8007804B080BD000081B068465B
:101DB000002101701C480068C007002804D0FFE71C
:101DC0006846012101702BE017480068C006002812
:101DD00004D5FFE768460421017020E0124800683E
:101DE0004007002804D5FFE768460221017015E08E
:101DF0000D4800680007002804D5FFE76846032166
:101E000001700AE0084800680004002804D5FFE7D4
:101E1000684607210170FFE7FFE7FFE7FFE7FFE7FD
:101E20006846007801B070470C2002401D480068E9
:101E30000006002806D5FFE703480449016004496D
:101E40000160FFE77047C046042002402301674558
:101E5000AB89EFCD80B586B00590049101200005D7
:101E6000FFF776FF03A908700878002816D1FFE76E
:101E70000C4801680122114301600499059B196017
:101E80001105029008460192FFF762FF03A908704E
:101E900002980168019A91430160FFE703A8007866
:101EA00006B080BD1020024080B588B0CC480BF051
:101EB00087FFCC480BF084FFCB48012100224CF275
:101EC0000003079006910592049300F0A6F9032001
:101ED0000799039008460599039A049B00F0E5F9D9
:101EE000C248C0210290069A01911146059A019BB1
:101EF00000F093F902980599039A019B00F0D5F937
:101F000008B080BD80B582B0B848402101900CF087
:101F100041FB802101980CF03DFBB34844F20001E5
:101F200000900CF037FB48F2000100980CF032FBF7
:101F300002B080BD80B582B0AC48402101900CF069
:101F400075FB802101980CF071FBA74844F2000159
:101F500000900CF06BFB48F2000100980CF066FB5F
:101F600002B080BD80B582B0A048402101900CF045
:101F7000A9FB802101980CF0A5FB9B4844F20001CD
:101F800000900CF09FFB48F2000100980CF09AFBC7
:101F900002B080BD80B582B09448402101900CF021
:101FA000E1FB802101980CF0DDFB8F4844F2000139
:101FB00000900CF0D7FB48F2000100980CF0D2FB27
:101FC00002B080BD80B582B00190009101A8017877
:101FD00007480DF0C7FDFFE7054806490DF023FE51
:101FE000002801D1FFE7F7E7019802B080BDC046A5
:101FF000004400400707000001484168006870473E
:102000007002002086B00590049103920598006A42
:1020100001900598406A009002A800210180FFE726
:1020200002A8008807281ED8FFE702A800880399A5
:10203000C140C807002810D0FFE702A80188890026
:102040000F228A40019991430191049900888000F0
:102050008140019808430190FFE7FFE70298401C88
:1020600002A90880DCE702A808210180FFE702A896
:1020700000880F2820D8FFE702A800880399C140F4
:10208000C807002812D0FFE702A80188890020397C
:102090000F228A40009991430091049900888000A2
:1020A00020388140009808430090FFE7FFE702983E
:1020B000401C02A90880DAE7019805990862009897
:1020C0000599486206B0704782B00190009100986F
:1020D0000199886202B0704782B001900091009827
:1020E0000199886102B0704782B001900091009818
:1020F0000199C86202B0704783B013460290019103
:10210000684602700078002804D0FFE70198029921
:10211000886103E0019802998862FFE703B0704785
:1021200080B588B02E480BF04BFE2E480BF048FED1
:102130002D48042140F20042079006910592FFF7D6
:1021400061FF40F600000799049008460699049A3A
:10215000FFF758FF02200121079A03901046039BC6
:1021600002911946029A059B00F057F8032007993F
:10217000019008460299019A059B00F096F807988D
:102180000399029A049B00F048F807980299019A73
:10219000049B00F08AF8154800900699029AFFF710
:1021A00031FF00980699039AFFF72CFF00980399D6
:1021B000029A029B00F031F800980299019A029B62
:1021C00000F073F800980399029A039B00F025F839
:1021D00000980299019A039B00F067F808B080BD4F
:1021E0001205000013050000000400480008004824
:1021F00083B001900091019800690099084204D0D1
:10220000FFE702A80121017003E002A8002101708C
:10221000FFE702A8007803B0704787B006900591E9
:10222000049203930698006801900698C068009095
:1022300002A800210180FFE702A800880F282CD8FF
:10224000FFE702A800880399C140C80700281ED0F4
:10225000FFE702A801884900032213468B40019939
:1022600099430191059903885B009940019B0B43B9
:102270000193018849008A40009991430091049993
:10228000008840008140009808430090FFE7FFE786
:102290000298401C02A90880CEE7019806990860C0
:1022A00000980699C86007B0704710B586B00C4614
:1022B000059004A80170039202930078012806D1CA
:1022C000FFE7029805994A6802434A6005E00298D0
:1022D00005994A6882434A60FFE705988068009044
:1022E00001A800210180FFE701A800880F281ED85F
:1022F000FFE701A800880299C140C807002810D054
:10230000FFE701A80188490003228A400099914310
:102310000091039900884000814000980843009094
:10232000FFE7FFE70198401C01A90880DCE700985F
:102330000599886006B010BD83B0029001910092AB
:1023400001980849084001900098019908430299B2
:1023500088600298816848F200021143816003B0EE
:102360007047C046FF03000081B0009000984168AC
:10237000012252069143416001B0704781B0009044
:1023800000984168012252061143416001B0704734
:1023900070B5A4B0289C15460E46239022A8018053
:1023A00021A8027020931FA8048000201E901DA960
:1023B00008701C901BA908701AA9087019A901229D
:1023C0000A7018A90870FFE71BA80078002800D041
:1023D0000DE218A801784A1C02700A2901DBFFE708
:1023E00005E21DA800780528179000D9F3E1179899
:1023F000810001A251188F4600F00AB800F06FB8B2
:1024000000F0A6B800F050B900F0EAB800F0A8B9A2
:102410001AA80078002857D1FFE723988169012284
:102420001143816122A80188F74B002416901846B9
:10243000159222461494FFF77FFF23981699098876
:10244000149A00F0BBFA2398159900F047FB2398E3
:10245000FFF78AFFFFE7239848F2000100F06FFAC8
:102460000021002813910DD0FFE71C98E1490122BB
:10247000002388421293119201D31298119011985F
:102480001390FFE71398C007002804D0FFE71C98BB
:10249000401C1C90DFE71C98D749884209D8FFE709
:1024A000239800F0DCFA00201C901DA80121017087
:1024B00009E000F0B1F900201C901DA90870D44873
:1024C0000DF0BEFEFFE709E0239800F0C8FA1AA855
:1024D000002101701DA803210170FFE786E1FFE7DD
:1024E0002398012100F02BFA0021002810910DD132
:1024F000FFE71C98BF490122002388420F930E92E8
:1025000001D30F980E900E981090FFE71098C00717
:10251000002804D0FFE71C98401C1C90E0E71C98A2
:10252000B54988420BD8FFE7239821A9097800F024
:10253000EAF900201C901DA80221017007E000208C
:102540001C901DA90870B1480DF07AFEFFE74DE11F
:10255000FFE72398402100F0F2F9002100280D91B7
:102560000DD1FFE71C98A3490122002388420C9358
:102570000B9201D30C980B900B980D90FFE70D98E0
:10258000C007002804D0FFE71C98401C1C90E0E71F
:102590001C98994988421DD8FFE722A80188D54A8E
:1025A00000230A9010461A460993FFF7C5FE2398A8
:1025B0000A99098840F2004200F000FA239800F0DE
:1025C00044FA09981C901DA904220A701AA9012234
:1025D0000A7004E000201C901DA90870FFE705E1C7
:1025E0001FA80088FF2807DDFFE71F98FF381FA9F5
:1025F0000880FF201E9003E01FA800881E90FFE7C0
:1026000019A8007801280AD1FFE723981E9900F045
:1026100065FA19A8002101701DA8017043E0FFE7C9
:102620002398802100F08BF90021002808910DD11A
:10263000FFE71C986F490122002388420793069206
:1026400001D30798069006980890FFE70898C007FE
:10265000002804D0FFE71C98401C1C90E0E71C9861
:102660006549884216D8FFE723981E9900F036FA8C
:102670001FA80088FF2807DCFFE7239800F0DBF99C
:102680002398FFF77BFEFFE700201C901DA8032185
:10269000017007E000201C901DA9087059480DF03A
:1026A000CFFDFFE7FFE7A1E0FFE72398012100F05E
:1026B00046F90021002805910DD1FFE71C984D49EE
:1026C0000122002388420493039201D304980390CB
:1026D00003980590FFE70598C007002804D0FFE79E
:1026E0001C98401C1C90E0E71C98434988422ED857
:1026F000FFE7FFE71E98002814D0FFE72398042186
:1027000000F01DF900280CD0FFE7239800F0F4F842
:10271000209908702098401C20901E98401E1E9002
:10272000FFE7E7E700201C9023984068C0010028DD
:1027300006D5FFE700201C901DA80421017005E0CC
:1027400000201C901DA805210170FFE707E0002074
:102750001C901DA908702A480DF072FDFFE745E0A6
:10276000FFE72398202100F0EAF8002100280291D9
:102770000DD1FFE71C981F490122002388420193D5
:10278000009201D30198009000980290FFE7029810
:10279000C007002804D0FFE71C98401C1C90E0E70D
:1027A0001C98154988420DD8FFE72398202100F096
:1027B000BCF800201C901DA8062101701BA8012157
:1027C000017007E000201C901DA908700B480DF057
:1027D00037FDFFE70AE01DA8002101701BA80122B8
:1027E00002701C910B480DF02BFDFFE7ECE524B0C7
:1027F00070BDC046204E00001F4E0000DA230208C4
:10280000622302088923020800540040B223020810
:10281000092402083A23020810B586B0214801684D
:1028200040F2004211430160016840F60003194381
:1028300001600592049300F097F800BF00BF00BF4D
:1028400000BF00BF18480168059A1143016000BF2E
:1028500000BF00BF00BF00BF0168049B19430160B7
:10286000554802210124039002912246059B0194C0
:10287000FFF7D3FC03200399009008460199009AC2
:10288000059BFFF712FD03980299019A049BFFF73D
:10289000C4FC03980199009A049BFFF706FD06B05B
:1028A00010BDC046280400481804004880B584B014
:1028B0000A46039002A8018003980E49884201D17C
:1028C000FFE715E0FFF72CFC02A800880BF078FA70
:1028D0000398032200210191019B00F0D4F8039892
:1028E0003321362200F088F8039800F015F8FFE74E
:1028F00004B080BD0054004081B000900098406A50
:10290000C0B201B0704782B0019000916846007873
:102910000199886202B0704781B000900098016808
:1029200001221143016001B0704782B00190009113
:1029300000980199CA690243CA6102B0704783B026
:1029400001900091019880690099084204D0FFE746
:1029500002A80121017003E002A800210170FFE735
:1029600002A8007803B0704780B586B012480121F4
:10297000002240F200430590049103920293FFF776
:102980004CFC03200599019008460399019A029B8B
:10299000FFF78BFC40F6000005990090084604996B
:1029A000039A009BFFF739FC05980399019A009B55
:1029B000FFF77BFC06B080BD0004004883B00290A6
:1029C00001910092029841680A4A114041600198C1
:1029D00002994A6802434A600298416840F2004204
:1029E00091434160009802994A6802434A6003B0EB
:1029F0007047C04600FCFFFF83B002900191009237
:102A0000029801694FF600729143016102980169D1
:102A1000FF22914301610198000280B20190684653
:102A20000078009001980099084302990A690243CE
:102A30000A6103B0704781B000900098416801229C
:102A400012069143416001B0704781B00090009838
:102A50004168012212061143416001B0704781B004
:102A600000900098416842F200021143416001B0B9
:102A7000704781B000900098416844F20002114311
:102A8000416001B0704784B00390029101920093BD
:102A9000039801690F2213079943016103980169A3
:102AA000130599430161039801691204914301617F
:102AB00002980007029001980007000A0190009810
:102AC0000007000B00900298019908430099084301
